{
  "_format": "hh-sol-artifact-1",
  "contractName": "Aegis",
  "sourceName": "contracts/Aegis.sol",
  "abi": [
    {
      "inputs": [],
      "stateMutability": "nonpayable",
      "type": "constructor"
    },
    {
      "anonymous": false,
      "inputs": [
        {
          "indexed": true,
          "internalType": "address",
          "name": "user",
          "type": "address"
        },
        {
          "indexed": true,
          "internalType": "uint256",
          "name": "postIndex",
          "type": "uint256"
        },
        {
          "indexed": true,
          "internalType": "bool",
          "name": "isPaid",
          "type": "bool"
        },
        {
          "indexed": false,
          "internalType": "string",
          "name": "text",
          "type": "string"
        },
        {
          "indexed": false,
          "internalType": "string[]",
          "name": "attachments",
          "type": "string[]"
        },
        {
          "indexed": false,
          "internalType": "uint256",
          "name": "timestamp",
          "type": "uint256"
        }
      ],
      "name": "PostCreated",
      "type": "event"
    },
    {
      "anonymous": false,
      "inputs": [
        {
          "indexed": false,
          "internalType": "string",
          "name": "username",
          "type": "string"
        },
        {
          "indexed": false,
          "internalType": "address",
          "name": "publicKey",
          "type": "address"
        },
        {
          "indexed": false,
          "internalType": "address",
          "name": "nftAddress",
          "type": "address"
        }
      ],
      "name": "UserCreated",
      "type": "event"
    },
    {
      "anonymous": false,
      "inputs": [
        {
          "indexed": false,
          "internalType": "address",
          "name": "follower",
          "type": "address"
        },
        {
          "indexed": false,
          "internalType": "address",
          "name": "followed",
          "type": "address"
        }
      ],
      "name": "UserFollowed",
      "type": "event"
    },
    {
      "inputs": [
        {
          "internalType": "string",
          "name": "text",
          "type": "string"
        },
        {
          "internalType": "string[]",
          "name": "attachments",
          "type": "string[]"
        },
        {
          "internalType": "bool",
          "name": "isPaid",
          "type": "bool"
        }
      ],
      "name": "createPost",
      "outputs": [],
      "stateMutability": "nonpayable",
      "type": "function"
    },
    {
      "inputs": [
        {
          "internalType": "string",
          "name": "username",
          "type": "string"
        }
      ],
      "name": "createUser",
      "outputs": [],
      "stateMutability": "nonpayable",
      "type": "function"
    },
    {
      "inputs": [
        {
          "internalType": "address",
          "name": "publicKey",
          "type": "address"
        }
      ],
      "name": "followUser",
      "outputs": [],
      "stateMutability": "nonpayable",
      "type": "function"
    },
    {
      "inputs": [],
      "name": "manager",
      "outputs": [
        {
          "internalType": "address",
          "name": "",
          "type": "address"
        }
      ],
      "stateMutability": "view",
      "type": "function"
    },
    {
      "inputs": [],
      "name": "maxNumAttachments",
      "outputs": [
        {
          "internalType": "uint256",
          "name": "",
          "type": "uint256"
        }
      ],
      "stateMutability": "view",
      "type": "function"
    },
    {
      "inputs": [],
      "name": "maxPostLength",
      "outputs": [
        {
          "internalType": "uint256",
          "name": "",
          "type": "uint256"
        }
      ],
      "stateMutability": "view",
      "type": "function"
    },
    {
      "inputs": [
        {
          "internalType": "address",
          "name": "",
          "type": "address"
        },
        {
          "internalType": "address",
          "name": "",
          "type": "address"
        }
      ],
      "name": "userHasFollowerNft",
      "outputs": [
        {
          "internalType": "bool",
          "name": "",
          "type": "bool"
        }
      ],
      "stateMutability": "view",
      "type": "function"
    },
    {
      "inputs": [
        {
          "internalType": "address",
          "name": "",
          "type": "address"
        }
      ],
      "name": "users",
      "outputs": [
        {
          "internalType": "string",
          "name": "username",
          "type": "string"
        },
        {
          "internalType": "address",
          "name": "publicKey",
          "type": "address"
        },
        {
          "internalType": "address",
          "name": "nftAddress",
          "type": "address"
        },
        {
          "components": [
            {
              "internalType": "uint256",
              "name": "_value",
              "type": "uint256"
            }
          ],
          "internalType": "struct Counters.Counter",
          "name": "numPosts",
          "type": "tuple"
        }
      ],
      "stateMutability": "view",
      "type": "function"
    }
  ],
  "bytecode": "0x608060405234801561001057600080fd5b50336000806101000a81548173ffffffffffffffffffffffffffffffffffffffff021916908373ffffffffffffffffffffffffffffffffffffffff160217905550614efb806100606000396000f3fe60806040523480156200001157600080fd5b5060043610620000945760003560e01c8063a70806f71162000063578063a70806f71462000131578063a87430ba1462000151578063ac466685146200018a578063cd13da4e14620001ac5762000094565b8063481c6a751462000099578063507ffba514620000bb57806360f17f8e14620000db57806375a329f014620000fb575b600080fd5b620000a3620001ce565b604051620000b2919062001338565b60405180910390f35b620000d96004803603810190620000d3919062000ff7565b620001f2565b005b620000f96004803603810190620000f3919062001040565b620004e0565b005b62000119600480360381019062000113919062000fb6565b62000744565b60405162000128919062001382565b60405180910390f35b6200014f600480360381019062000149919062000f8a565b62000773565b005b6200016f600480360381019062000169919062000f8a565b62000cae565b60405162000181949392919062001434565b60405180910390f35b6200019462000dc2565b604051620001a3919062001532565b60405180910390f35b620001b662000dc8565b604051620001c5919062001532565b60405180910390f35b60008054906101000a900473ffffffffffffffffffffffffffffffffffffffff1681565b600073ffffffffffffffffffffffffffffffffffffffff16600160003373ffffffffffffffffffffffffffffffffffffffff1673ffffffffffffffffffffffffffffffffffffffff16815260200190815260200160002060010160009054906101000a900473ffffffffffffffffffffffffffffffffffffffff1673ffffffffffffffffffffffffffffffffffffffff1614620002c6576040517f08c379a0000000000000000000000000000000000000000000000000000000008152600401620002bd90620014ee565b60405180910390fd5b6000604051620002d69062000df1565b604051809103906000f080158015620002f3573d6000803e3d6000fd5b5090506200030062000dff565b6000604051806080016040528086868080601f016020809104026020016040519081016040528093929190818152602001838380828437600081840152601f19601f8201169050808301925050505050505081526020013373ffffffffffffffffffffffffffffffffffffffff1681526020018473ffffffffffffffffffffffffffffffffffffffff16815260200183815250905080600160003373ffffffffffffffffffffffffffffffffffffffff1673ffffffffffffffffffffffffffffffffffffffff1681526020019081526020016000206000820151816000019080519060200190620003f392919062000e12565b5060208201518160010160006101000a81548173ffffffffffffffffffffffffffffffffffffffff021916908373ffffffffffffffffffffffffffffffffffffffff16021790555060408201518160020160006101000a81548173ffffffffffffffffffffffffffffffffffffffff021916908373ffffffffffffffffffffffffffffffffffffffff1602179055506060820151816003016000820151816000015550509050507f4db1f9eb383d4798721a1355d6bcba2440e13fe60a067bde713328aa65eb034d85853386604051620004d194939291906200139f565b60405180910390a15050505050565b600073ffffffffffffffffffffffffffffffffffffffff16600160003373ffffffffffffffffffffffffffffffffffffffff1673ffffffffffffffffffffffffffffffffffffffff16815260200190815260200160002060010160009054906101000a900473ffffffffffffffffffffffffffffffffffffffff1673ffffffffffffffffffffffffffffffffffffffff161415620005b5576040517f08c379a0000000000000000000000000000000000000000000000000000000008152600401620005ac90620014aa565b60405180910390fd5b61040085859050111562000600576040517f08c379a0000000000000000000000000000000000000000000000000000000008152600401620005f79062001488565b60405180910390fd5b600a8383905011156200064a576040517f08c379a0000000000000000000000000000000000000000000000000000000008152600401620006419062001510565b60405180910390fd5b80151562000699600160003373ffffffffffffffffffffffffffffffffffffffff1673ffffffffffffffffffffffffffffffffffffffff16815260200190815260200160002060030162000dcd565b3373ffffffffffffffffffffffffffffffffffffffff167fe894297f742154200e312ddfa3a003e3c48e37daf52e1aca5c4ff20b90e3bd3a8888888842604051620006e9959493929190620013e5565b60405180910390a46200073d600160003373ffffffffffffffffffffffffffffffffffffffff1673ffffffffffffffffffffffffffffffffffffffff16815260200190815260200160002060030162000ddb565b5050505050565b60026020528160005260406000206020528060005260406000206000915091509054906101000a900460ff1681565b600073ffffffffffffffffffffffffffffffffffffffff16600160003373ffffffffffffffffffffffffffffffffffffffff1673ffffffffffffffffffffffffffffffffffffffff16815260200190815260200160002060010160009054906101000a900473ffffffffffffffffffffffffffffffffffffffff1673ffffffffffffffffffffffffffffffffffffffff16141562000848576040517f08c379a00000000000000000000000000000000000000000000000000000000081526004016200083f90620014aa565b60405180910390fd5b80600073ffffffffffffffffffffffffffffffffffffffff16600160008373ffffffffffffffffffffffffffffffffffffffff1673ffffffffffffffffffffffffffffffffffffffff16815260200190815260200160002060010160009054906101000a900473ffffffffffffffffffffffffffffffffffffffff1673ffffffffffffffffffffffffffffffffffffffff1614156200091e576040517f08c379a00000000000000000000000000000000000000000000000000000000081526004016200091590620014cc565b60405180910390fd5b6000600160008473ffffffffffffffffffffffffffffffffffffffff1673ffffffffffffffffffffffffffffffffffffffff1681526020019081526020016000206040518060800160405290816000820180546200097c906200168d565b80601f0160208091040260200160405190810160405280929190818152602001828054620009aa906200168d565b8015620009fb5780601f10620009cf57610100808354040283529160200191620009fb565b820191906000526020600020905b815481529060010190602001808311620009dd57829003601f168201915b505050505081526020016001820160009054906101000a900473ffffffffffffffffffffffffffffffffffffffff1673ffffffffffffffffffffffffffffffffffffffff1673ffffffffffffffffffffffffffffffffffffffff1681526020016002820160009054906101000a900473ffffffffffffffffffffffffffffffffffffffff1673ffffffffffffffffffffffffffffffffffffffff1673ffffffffffffffffffffffffffffffffffffffff16815260200160038201604051806020016040529081600082015481525050815250509050600260008473ffffffffffffffffffffffffffffffffffffffff1673ffffffffffffffffffffffffffffffffffffffff16815260200190815260200160002060003373ffffffffffffffffffffffffffffffffffffffff1673ffffffffffffffffffffffffffffffffffffffff16815260200190815260200160002060009054906101000a900460ff1662000c6e576000816040015190508073ffffffffffffffffffffffffffffffffffffffff166340d097c3336040518263ffffffff1660e01b815260040162000ba3919062001338565b600060405180830381600087803b15801562000bbe57600080fd5b505af115801562000bd3573d6000803e3d6000fd5b505050506001600260008673ffffffffffffffffffffffffffffffffffffffff1673ffffffffffffffffffffffffffffffffffffffff16815260200190815260200160002060003373ffffffffffffffffffffffffffffffffffffffff1673ffffffffffffffffffffffffffffffffffffffff16815260200190815260200160002060006101000a81548160ff021916908315150217905550505b7f30b3435b456f45779984ddfa456115ee4c20d9e446979b1b9e90dbb7e12b90b7338460405162000ca192919062001355565b60405180910390a1505050565b600160205280600052604060002060009150905080600001805462000cd3906200168d565b80601f016020809104026020016040519081016040528092919081815260200182805462000d01906200168d565b801562000d525780601f1062000d265761010080835404028352916020019162000d52565b820191906000526020600020905b81548152906001019060200180831162000d3457829003601f168201915b5050505050908060010160009054906101000a900473ffffffffffffffffffffffffffffffffffffffff16908060020160009054906101000a900473ffffffffffffffffffffffffffffffffffffffff169080600301604051806020016040529081600082015481525050905084565b61040081565b600a81565b600081600001549050919050565b6001816000016000828254019250508190555050565b6136c1806200180583390190565b6040518060200160405280600081525090565b82805462000e20906200168d565b90600052602060002090601f01602090048101928262000e44576000855562000e90565b82601f1062000e5f57805160ff191683800117855562000e90565b8280016001018555821562000e90579182015b8281111562000e8f57825182559160200191906001019062000e72565b5b50905062000e9f919062000ea3565b5090565b5b8082111562000ebe57600081600090555060010162000ea4565b5090565b60008135905062000ed381620017d0565b92915050565b60008083601f84011262000eec57600080fd5b8235905067ffffffffffffffff81111562000f0657600080fd5b60208301915083602082028301111562000f1f57600080fd5b9250929050565b60008135905062000f3781620017ea565b92915050565b60008083601f84011262000f5057600080fd5b8235905067ffffffffffffffff81111562000f6a57600080fd5b60208301915083600182028301111562000f8357600080fd5b9250929050565b60006020828403121562000f9d57600080fd5b600062000fad8482850162000ec2565b91505092915050565b6000806040838503121562000fca57600080fd5b600062000fda8582860162000ec2565b925050602062000fed8582860162000ec2565b9150509250929050565b600080602083850312156200100b57600080fd5b600083013567ffffffffffffffff8111156200102657600080fd5b620010348582860162000f3d565b92509250509250929050565b6000806000806000606086880312156200105957600080fd5b600086013567ffffffffffffffff8111156200107457600080fd5b620010828882890162000f3d565b9550955050602086013567ffffffffffffffff811115620010a257600080fd5b620010b08882890162000ed9565b93509350506040620010c58882890162000f26565b9150509295509295909350565b6000620010e18484846200118e565b90509392505050565b620010f581620015fe565b82525050565b600062001109838562001571565b9350836020840285016200111d846200154f565b8060005b878110156200116b5784840389526200113b8284620015a4565b62001148868284620010d2565b9550620011558462001564565b935060208b019a50505060018101905062001121565b50829750879450505050509392505050565b620011888162001612565b82525050565b60006200119c838562001582565b9350620011ab83858462001648565b620011b683620016f2565b840190509392505050565b6000620011cf838562001593565b9350620011de83858462001648565b620011e983620016f2565b840190509392505050565b6000620012018262001559565b6200120d818562001593565b93506200121f81856020860162001657565b6200122a81620016f2565b840191505092915050565b60006200124460168362001593565b9150620012518262001703565b602082019050919050565b60006200126b60168362001593565b915062001278826200172c565b602082019050919050565b60006200129260148362001593565b91506200129f8262001755565b602082019050919050565b6000620012b960148362001593565b9150620012c6826200177e565b602082019050919050565b6000620012e060158362001593565b9150620012ed82620017a7565b602082019050919050565b60208201600082015162001310600085018262001316565b50505050565b62001321816200163e565b82525050565b62001332816200163e565b82525050565b60006020820190506200134f6000830184620010ea565b92915050565b60006040820190506200136c6000830185620010ea565b6200137b6020830184620010ea565b9392505050565b60006020820190506200139960008301846200117d565b92915050565b60006060820190508181036000830152620013bc818688620011c1565b9050620013cd6020830185620010ea565b620013dc6040830184620010ea565b95945050505050565b6000606082019050818103600083015262001402818789620011c1565b9050818103602083015262001419818587620010fb565b90506200142a604083018462001327565b9695505050505050565b60006080820190508181036000830152620014508187620011f4565b9050620014616020830186620010ea565b620014706040830185620010ea565b6200147f6060830184620012f8565b95945050505050565b60006020820190508181036000830152620014a38162001235565b9050919050565b60006020820190508181036000830152620014c5816200125c565b9050919050565b60006020820190508181036000830152620014e78162001283565b9050919050565b600060208201905081810360008301526200150981620012aa565b9050919050565b600060208201905081810360008301526200152b81620012d1565b9050919050565b600060208201905062001549600083018462001327565b92915050565b6000819050919050565b600081519050919050565b6000602082019050919050565b600082825260208201905092915050565b600082825260208201905092915050565b600082825260208201905092915050565b60008083356001602003843603038112620015be57600080fd5b83810192508235915060208301925067ffffffffffffffff821115620015e357600080fd5b600182023603841315620015f657600080fd5b509250929050565b60006200160b826200161e565b9050919050565b60008115159050919050565b600073ffffffffffffffffffffffffffffffffffffffff82169050919050565b6000819050919050565b82818337600083830152505050565b60005b83811015620016775780820151818401526020810190506200165a565b8381111562001687576000848401525b50505050565b60006002820490506001821680620016a657607f821691505b60208210811415620016bd57620016bc620016c3565b5b50919050565b7f4e487b7100000000000000000000000000000000000000000000000000000000600052602260045260246000fd5b6000601f19601f8301169050919050565b7f506f7374207465787420697320746f6f206c6f6e672e00000000000000000000600082015250565b7f43616c6c6572206973206e6f7420616e20757365722e00000000000000000000600082015250565b7f5573657220646f6573206e6f742065786973742e000000000000000000000000600082015250565b7f5573657220616c7265616479206578697374732e000000000000000000000000600082015250565b7f546f6f206d616e79206174746163686d656e74732e0000000000000000000000600082015250565b620017db81620015fe565b8114620017e757600080fd5b50565b620017f58162001612565b81146200180157600080fd5b5056fe60806040523480156200001157600080fd5b506040518060400160405280600e81526020017f4165676973466f6c6c6f776572730000000000000000000000000000000000008152506040518060400160405280600381526020017f4147460000000000000000000000000000000000000000000000000000000000815250816000908051906020019062000096929190620001a6565b508060019080519060200190620000af929190620001a6565b505050620000d2620000c6620000d860201b60201c565b620000e060201b60201c565b620002bb565b600033905090565b6000600a60009054906101000a900473ffffffffffffffffffffffffffffffffffffffff16905081600a60006101000a81548173ffffffffffffffffffffffffffffffffffffffff021916908373ffffffffffffffffffffffffffffffffffffffff1602179055508173ffffffffffffffffffffffffffffffffffffffff168173ffffffffffffffffffffffffffffffffffffffff167f8be0079c531659141344cd1fd0a4f28419497f9722a3daafe3b4186f6b6457e060405160405180910390a35050565b828054620001b49062000256565b90600052602060002090601f016020900481019282620001d8576000855562000224565b82601f10620001f357805160ff191683800117855562000224565b8280016001018555821562000224579182015b828111156200022357825182559160200191906001019062000206565b5b50905062000233919062000237565b5090565b5b808211156200025257600081600090555060010162000238565b5090565b600060028204905060018216806200026f57607f821691505b602082108114156200028657620002856200028c565b5b50919050565b7f4e487b7100000000000000000000000000000000000000000000000000000000600052602260045260246000fd5b6133f680620002cb6000396000f3fe608060405234801561001057600080fd5b506004361061012c5760003560e01c80636352211e116100ad578063a22cb46511610071578063a22cb46514610343578063b88d4fde1461035f578063c87b56dd1461037b578063e985e9c5146103ab578063f2fde38b146103db5761012c565b80636352211e1461029d57806370a08231146102cd578063715018a6146102fd5780638da5cb5b1461030757806395d89b41146103255761012c565b806323b872dd116100f457806323b872dd146101e95780632f745c591461020557806340d097c31461023557806342842e0e146102515780634f6ccce71461026d5761012c565b806301ffc9a71461013157806306fdde0314610161578063081812fc1461017f578063095ea7b3146101af57806318160ddd146101cb575b600080fd5b61014b600480360381019061014691906123d6565b6103f7565b6040516101589190612822565b60405180910390f35b610169610409565b604051610176919061283d565b60405180910390f35b61019960048036038101906101949190612428565b61049b565b6040516101a691906127bb565b60405180910390f35b6101c960048036038101906101c4919061239a565b610520565b005b6101d3610638565b6040516101e09190612a9f565b60405180910390f35b61020360048036038101906101fe9190612294565b610645565b005b61021f600480360381019061021a919061239a565b6106a5565b60405161022c9190612a9f565b60405180910390f35b61024f600480360381019061024a919061222f565b61074a565b005b61026b60048036038101906102669190612294565b6107ec565b005b61028760048036038101906102829190612428565b61080c565b6040516102949190612a9f565b60405180910390f35b6102b760048036038101906102b29190612428565b6108a3565b6040516102c491906127bb565b60405180910390f35b6102e760048036038101906102e2919061222f565b610955565b6040516102f49190612a9f565b60405180910390f35b610305610a0d565b005b61030f610a95565b60405161031c91906127bb565b60405180910390f35b61032d610abf565b60405161033a919061283d565b60405180910390f35b61035d6004803603810190610358919061235e565b610b51565b005b610379600480360381019061037491906122e3565b610b67565b005b61039560048036038101906103909190612428565b610bc9565b6040516103a2919061283d565b60405180910390f35b6103c560048036038101906103c09190612258565b610c70565b6040516103d29190612822565b60405180910390f35b6103f560048036038101906103f0919061222f565b610d04565b005b600061040282610dfc565b9050919050565b60606000805461041890612cc4565b80601f016020809104026020016040519081016040528092919081815260200182805461044490612cc4565b80156104915780601f1061046657610100808354040283529160200191610491565b820191906000526020600020905b81548152906001019060200180831161047457829003601f168201915b5050505050905090565b60006104a682610e76565b6104e5576040517f08c379a00000000000000000000000000000000000000000000000000000000081526004016104dc906129df565b60405180910390fd5b6004600083815260200190815260200160002060009054906101000a900473ffffffffffffffffffffffffffffffffffffffff169050919050565b600061052b826108a3565b90508073ffffffffffffffffffffffffffffffffffffffff168373ffffffffffffffffffffffffffffffffffffffff16141561059c576040517f08c379a000000000000000000000000000000000000000000000000000000000815260040161059390612a3f565b60405180910390fd5b8073ffffffffffffffffffffffffffffffffffffffff166105bb610ee2565b73ffffffffffffffffffffffffffffffffffffffff1614806105ea57506105e9816105e4610ee2565b610c70565b5b610629576040517f08c379a00000000000000000000000000000000000000000000000000000000081526004016106209061295f565b60405180910390fd5b6106338383610eea565b505050565b6000600880549050905090565b610656610650610ee2565b82610fa3565b610695576040517f08c379a000000000000000000000000000000000000000000000000000000000815260040161068c90612a5f565b60405180910390fd5b6106a0838383611081565b505050565b60006106b083610955565b82106106f1576040517f08c379a00000000000000000000000000000000000000000000000000000000081526004016106e89061285f565b60405180910390fd5b600660008473ffffffffffffffffffffffffffffffffffffffff1673ffffffffffffffffffffffffffffffffffffffff168152602001908152602001600020600083815260200190815260200160002054905092915050565b610752610ee2565b73ffffffffffffffffffffffffffffffffffffffff16610770610a95565b73ffffffffffffffffffffffffffffffffffffffff16146107c6576040517f08c379a00000000000000000000000000000000000000000000000000000000081526004016107bd906129ff565b60405180910390fd5b60006107d2600b6112e8565b90506107de600b6112f6565b6107e8828261130c565b5050565b61080783838360405180602001604052806000815250610b67565b505050565b6000610816610638565b8210610857576040517f08c379a000000000000000000000000000000000000000000000000000000000815260040161084e90612a7f565b60405180910390fd5b60088281548110610891577f4e487b7100000000000000000000000000000000000000000000000000000000600052603260045260246000fd5b90600052602060002001549050919050565b6000806002600084815260200190815260200160002060009054906101000a900473ffffffffffffffffffffffffffffffffffffffff169050600073ffffffffffffffffffffffffffffffffffffffff168173ffffffffffffffffffffffffffffffffffffffff16141561094c576040517f08c379a00000000000000000000000000000000000000000000000000000000081526004016109439061299f565b60405180910390fd5b80915050919050565b60008073ffffffffffffffffffffffffffffffffffffffff168273ffffffffffffffffffffffffffffffffffffffff1614156109c6576040517f08c379a00000000000000000000000000000000000000000000000000000000081526004016109bd9061297f565b60405180910390fd5b600360008373ffffffffffffffffffffffffffffffffffffffff1673ffffffffffffffffffffffffffffffffffffffff168152602001908152602001600020549050919050565b610a15610ee2565b73ffffffffffffffffffffffffffffffffffffffff16610a33610a95565b73ffffffffffffffffffffffffffffffffffffffff1614610a89576040517f08c379a0000000000000000000000000000000000000000000000000000000008152600401610a80906129ff565b60405180910390fd5b610a93600061132a565b565b6000600a60009054906101000a900473ffffffffffffffffffffffffffffffffffffffff16905090565b606060018054610ace90612cc4565b80601f0160208091040260200160405190810160405280929190818152602001828054610afa90612cc4565b8015610b475780601f10610b1c57610100808354040283529160200191610b47565b820191906000526020600020905b815481529060010190602001808311610b2a57829003601f168201915b5050505050905090565b610b63610b5c610ee2565b83836113f0565b5050565b610b78610b72610ee2565b83610fa3565b610bb7576040517f08c379a0000000000000000000000000000000000000000000000000000000008152600401610bae90612a5f565b60405180910390fd5b610bc38484848461155d565b50505050565b6060610bd482610e76565b610c13576040517f08c379a0000000000000000000000000000000000000000000000000000000008152600401610c0a90612a1f565b60405180910390fd5b6000610c1d6115b9565b90506000815111610c3d5760405180602001604052806000815250610c68565b80610c47846115d0565b604051602001610c58929190612797565b6040516020818303038152906040525b915050919050565b6000600560008473ffffffffffffffffffffffffffffffffffffffff1673ffffffffffffffffffffffffffffffffffffffff16815260200190815260200160002060008373ffffffffffffffffffffffffffffffffffffffff1673ffffffffffffffffffffffffffffffffffffffff16815260200190815260200160002060009054906101000a900460ff16905092915050565b610d0c610ee2565b73ffffffffffffffffffffffffffffffffffffffff16610d2a610a95565b73ffffffffffffffffffffffffffffffffffffffff1614610d80576040517f08c379a0000000000000000000000000000000000000000000000000000000008152600401610d77906129ff565b60405180910390fd5b600073ffffffffffffffffffffffffffffffffffffffff168173ffffffffffffffffffffffffffffffffffffffff161415610df0576040517f08c379a0000000000000000000000000000000000000000000000000000000008152600401610de79061289f565b60405180910390fd5b610df98161132a565b50565b60007f780e9d63000000000000000000000000000000000000000000000000000000007bffffffffffffffffffffffffffffffffffffffffffffffffffffffff1916827bffffffffffffffffffffffffffffffffffffffffffffffffffffffff19161480610e6f5750610e6e8261177d565b5b9050919050565b60008073ffffffffffffffffffffffffffffffffffffffff166002600084815260200190815260200160002060009054906101000a900473ffffffffffffffffffffffffffffffffffffffff1673ffffffffffffffffffffffffffffffffffffffff1614159050919050565b600033905090565b816004600083815260200190815260200160002060006101000a81548173ffffffffffffffffffffffffffffffffffffffff021916908373ffffffffffffffffffffffffffffffffffffffff160217905550808273ffffffffffffffffffffffffffffffffffffffff16610f5d836108a3565b73ffffffffffffffffffffffffffffffffffffffff167f8c5be1e5ebec7d5bd14f71427d1e84f3dd0314c0f7b2291e5b200ac8c7c3b92560405160405180910390a45050565b6000610fae82610e76565b610fed576040517f08c379a0000000000000000000000000000000000000000000000000000000008152600401610fe49061293f565b60405180910390fd5b6000610ff8836108a3565b90508073ffffffffffffffffffffffffffffffffffffffff168473ffffffffffffffffffffffffffffffffffffffff16148061106757508373ffffffffffffffffffffffffffffffffffffffff1661104f8461049b565b73ffffffffffffffffffffffffffffffffffffffff16145b8061107857506110778185610c70565b5b91505092915050565b8273ffffffffffffffffffffffffffffffffffffffff166110a1826108a3565b73ffffffffffffffffffffffffffffffffffffffff16146110f7576040517f08c379a00000000000000000000000000000000000000000000000000000000081526004016110ee906128bf565b60405180910390fd5b600073ffffffffffffffffffffffffffffffffffffffff168273ffffffffffffffffffffffffffffffffffffffff161415611167576040517f08c379a000000000000000000000000000000000000000000000000000000000815260040161115e906128ff565b60405180910390fd5b61117283838361185f565b61117d600082610eea565b6001600360008573ffffffffffffffffffffffffffffffffffffffff1673ffffffffffffffffffffffffffffffffffffffff16815260200190815260200160002060008282546111cd9190612bda565b925050819055506001600360008473ffffffffffffffffffffffffffffffffffffffff1673ffffffffffffffffffffffffffffffffffffffff16815260200190815260200160002060008282546112249190612b53565b92505081905550816002600083815260200190815260200160002060006101000a81548173ffffffffffffffffffffffffffffffffffffffff021916908373ffffffffffffffffffffffffffffffffffffffff160217905550808273ffffffffffffffffffffffffffffffffffffffff168473ffffffffffffffffffffffffffffffffffffffff167fddf252ad1be2c89b69c2b068fc378daa952ba7f163c4a11628f55a4df523b3ef60405160405180910390a46112e383838361186f565b505050565b600081600001549050919050565b6001816000016000828254019250508190555050565b611326828260405180602001604052806000815250611874565b5050565b6000600a60009054906101000a900473ffffffffffffffffffffffffffffffffffffffff16905081600a60006101000a81548173ffffffffffffffffffffffffffffffffffffffff021916908373ffffffffffffffffffffffffffffffffffffffff1602179055508173ffffffffffffffffffffffffffffffffffffffff168173ffffffffffffffffffffffffffffffffffffffff167f8be0079c531659141344cd1fd0a4f28419497f9722a3daafe3b4186f6b6457e060405160405180910390a35050565b8173ffffffffffffffffffffffffffffffffffffffff168373ffffffffffffffffffffffffffffffffffffffff16141561145f576040517f08c379a00000000000000000000000000000000000000000000000000000000081526004016114569061291f565b60405180910390fd5b80600560008573ffffffffffffffffffffffffffffffffffffffff1673ffffffffffffffffffffffffffffffffffffffff16815260200190815260200160002060008473ffffffffffffffffffffffffffffffffffffffff1673ffffffffffffffffffffffffffffffffffffffff16815260200190815260200160002060006101000a81548160ff0219169083151502179055508173ffffffffffffffffffffffffffffffffffffffff168373ffffffffffffffffffffffffffffffffffffffff167f17307eab39ab6107e8899845ad3d59bd9653f200f220920489ca2b5937696c31836040516115509190612822565b60405180910390a3505050565b611568848484611081565b611574848484846118cf565b6115b3576040517f08c379a00000000000000000000000000000000000000000000000000000000081526004016115aa9061287f565b60405180910390fd5b50505050565b606060405180602001604052806000815250905090565b60606000821415611618576040518060400160405280600181526020017f30000000000000000000000000000000000000000000000000000000000000008152509050611778565b600082905060005b6000821461164a57808061163390612d27565b915050600a826116439190612ba9565b9150611620565b60008167ffffffffffffffff81111561168c577f4e487b7100000000000000000000000000000000000000000000000000000000600052604160045260246000fd5b6040519080825280601f01601f1916602001820160405280156116be5781602001600182028036833780820191505090505b5090505b60008514611771576001826116d79190612bda565b9150600a856116e69190612d70565b60306116f29190612b53565b60f81b81838151811061172e577f4e487b7100000000000000000000000000000000000000000000000000000000600052603260045260246000fd5b60200101907effffffffffffffffffffffffffffffffffffffffffffffffffffffffffffff1916908160001a905350600a8561176a9190612ba9565b94506116c2565b8093505050505b919050565b60007f80ac58cd000000000000000000000000000000000000000000000000000000007bffffffffffffffffffffffffffffffffffffffffffffffffffffffff1916827bffffffffffffffffffffffffffffffffffffffffffffffffffffffff1916148061184857507f5b5e139f000000000000000000000000000000000000000000000000000000007bffffffffffffffffffffffffffffffffffffffffffffffffffffffff1916827bffffffffffffffffffffffffffffffffffffffffffffffffffffffff1916145b80611858575061185782611a66565b5b9050919050565b61186a838383611ad0565b505050565b505050565b61187e8383611be4565b61188b60008484846118cf565b6118ca576040517f08c379a00000000000000000000000000000000000000000000000000000000081526004016118c19061287f565b60405180910390fd5b505050565b60006118f08473ffffffffffffffffffffffffffffffffffffffff16611dbe565b15611a59578373ffffffffffffffffffffffffffffffffffffffff1663150b7a02611919610ee2565b8786866040518563ffffffff1660e01b815260040161193b94939291906127d6565b602060405180830381600087803b15801561195557600080fd5b505af192505050801561198657506040513d601f19601f8201168201806040525081019061198391906123ff565b60015b611a09573d80600081146119b6576040519150601f19603f3d011682016040523d82523d6000602084013e6119bb565b606091505b50600081511415611a01576040517f08c379a00000000000000000000000000000000000000000000000000000000081526004016119f89061287f565b60405180910390fd5b805181602001fd5b63150b7a0260e01b7bffffffffffffffffffffffffffffffffffffffffffffffffffffffff1916817bffffffffffffffffffffffffffffffffffffffffffffffffffffffff191614915050611a5e565b600190505b949350505050565b60007f01ffc9a7000000000000000000000000000000000000000000000000000000007bffffffffffffffffffffffffffffffffffffffffffffffffffffffff1916827bffffffffffffffffffffffffffffffffffffffffffffffffffffffff1916149050919050565b611adb838383611de1565b600073ffffffffffffffffffffffffffffffffffffffff168373ffffffffffffffffffffffffffffffffffffffff161415611b1e57611b1981611de6565b611b5d565b8173ffffffffffffffffffffffffffffffffffffffff168373ffffffffffffffffffffffffffffffffffffffff1614611b5c57611b5b8382611e2f565b5b5b600073ffffffffffffffffffffffffffffffffffffffff168273ffffffffffffffffffffffffffffffffffffffff161415611ba057611b9b81611f9c565b611bdf565b8273ffffffffffffffffffffffffffffffffffffffff168273ffffffffffffffffffffffffffffffffffffffff1614611bde57611bdd82826120df565b5b5b505050565b600073ffffffffffffffffffffffffffffffffffffffff168273ffffffffffffffffffffffffffffffffffffffff161415611c54576040517f08c379a0000000000000000000000000000000000000000000000000000000008152600401611c4b906129bf565b60405180910390fd5b611c5d81610e76565b15611c9d576040517f08c379a0000000000000000000000000000000000000000000000000000000008152600401611c94906128df565b60405180910390fd5b611ca96000838361185f565b6001600360008473ffffffffffffffffffffffffffffffffffffffff1673ffffffffffffffffffffffffffffffffffffffff1681526020019081526020016000206000828254611cf99190612b53565b92505081905550816002600083815260200190815260200160002060006101000a81548173ffffffffffffffffffffffffffffffffffffffff021916908373ffffffffffffffffffffffffffffffffffffffff160217905550808273ffffffffffffffffffffffffffffffffffffffff16600073ffffffffffffffffffffffffffffffffffffffff167fddf252ad1be2c89b69c2b068fc378daa952ba7f163c4a11628f55a4df523b3ef60405160405180910390a4611dba6000838361186f565b5050565b6000808273ffffffffffffffffffffffffffffffffffffffff163b119050919050565b505050565b6008805490506009600083815260200190815260200160002081905550600881908060018154018082558091505060019003906000526020600020016000909190919091505550565b60006001611e3c84610955565b611e469190612bda565b9050600060076000848152602001908152602001600020549050818114611f2b576000600660008673ffffffffffffffffffffffffffffffffffffffff1673ffffffffffffffffffffffffffffffffffffffff168152602001908152602001600020600084815260200190815260200160002054905080600660008773ffffffffffffffffffffffffffffffffffffffff1673ffffffffffffffffffffffffffffffffffffffff168152602001908152602001600020600084815260200190815260200160002081905550816007600083815260200190815260200160002081905550505b6007600084815260200190815260200160002060009055600660008573ffffffffffffffffffffffffffffffffffffffff1673ffffffffffffffffffffffffffffffffffffffff16815260200190815260200160002060008381526020019081526020016000206000905550505050565b60006001600880549050611fb09190612bda565b9050600060096000848152602001908152602001600020549050600060088381548110612006577f4e487b7100000000000000000000000000000000000000000000000000000000600052603260045260246000fd5b90600052602060002001549050806008838154811061204e577f4e487b7100000000000000000000000000000000000000000000000000000000600052603260045260246000fd5b9060005260206000200181905550816009600083815260200190815260200160002081905550600960008581526020019081526020016000206000905560088054806120c3577f4e487b7100000000000000000000000000000000000000000000000000000000600052603160045260246000fd5b6001900381819060005260206000200160009055905550505050565b60006120ea83610955565b905081600660008573ffffffffffffffffffffffffffffffffffffffff1673ffffffffffffffffffffffffffffffffffffffff168152602001908152602001600020600083815260200190815260200160002081905550806007600084815260200190815260200160002081905550505050565b600061217161216c84612adf565b612aba565b90508281526020810184848401111561218957600080fd5b612194848285612c82565b509392505050565b6000813590506121ab81613364565b92915050565b6000813590506121c08161337b565b92915050565b6000813590506121d581613392565b92915050565b6000815190506121ea81613392565b92915050565b600082601f83011261220157600080fd5b813561221184826020860161215e565b91505092915050565b600081359050612229816133a9565b92915050565b60006020828403121561224157600080fd5b600061224f8482850161219c565b91505092915050565b6000806040838503121561226b57600080fd5b60006122798582860161219c565b925050602061228a8582860161219c565b9150509250929050565b6000806000606084860312156122a957600080fd5b60006122b78682870161219c565b93505060206122c88682870161219c565b92505060406122d98682870161221a565b9150509250925092565b600080600080608085870312156122f957600080fd5b60006123078782880161219c565b94505060206123188782880161219c565b93505060406123298782880161221a565b925050606085013567ffffffffffffffff81111561234657600080fd5b612352878288016121f0565b91505092959194509250565b6000806040838503121561237157600080fd5b600061237f8582860161219c565b9250506020612390858286016121b1565b9150509250929050565b600080604083850312156123ad57600080fd5b60006123bb8582860161219c565b92505060206123cc8582860161221a565b9150509250929050565b6000602082840312156123e857600080fd5b60006123f6848285016121c6565b91505092915050565b60006020828403121561241157600080fd5b600061241f848285016121db565b91505092915050565b60006020828403121561243a57600080fd5b60006124488482850161221a565b91505092915050565b61245a81612c0e565b82525050565b61246981612c20565b82525050565b600061247a82612b10565b6124848185612b26565b9350612494818560208601612c91565b61249d81612e5d565b840191505092915050565b60006124b382612b1b565b6124bd8185612b37565b93506124cd818560208601612c91565b6124d681612e5d565b840191505092915050565b60006124ec82612b1b565b6124f68185612b48565b9350612506818560208601612c91565b80840191505092915050565b600061251f602b83612b37565b915061252a82612e6e565b604082019050919050565b6000612542603283612b37565b915061254d82612ebd565b604082019050919050565b6000612565602683612b37565b915061257082612f0c565b604082019050919050565b6000612588602583612b37565b915061259382612f5b565b604082019050919050565b60006125ab601c83612b37565b91506125b682612faa565b602082019050919050565b60006125ce602483612b37565b91506125d982612fd3565b604082019050919050565b60006125f1601983612b37565b91506125fc82613022565b602082019050919050565b6000612614602c83612b37565b915061261f8261304b565b604082019050919050565b6000612637603883612b37565b91506126428261309a565b604082019050919050565b600061265a602a83612b37565b9150612665826130e9565b604082019050919050565b600061267d602983612b37565b915061268882613138565b604082019050919050565b60006126a0602083612b37565b91506126ab82613187565b602082019050919050565b60006126c3602c83612b37565b91506126ce826131b0565b604082019050919050565b60006126e6602083612b37565b91506126f1826131ff565b602082019050919050565b6000612709602f83612b37565b915061271482613228565b604082019050919050565b600061272c602183612b37565b915061273782613277565b604082019050919050565b600061274f603183612b37565b915061275a826132c6565b604082019050919050565b6000612772602c83612b37565b915061277d82613315565b604082019050919050565b61279181612c78565b82525050565b60006127a382856124e1565b91506127af82846124e1565b91508190509392505050565b60006020820190506127d06000830184612451565b92915050565b60006080820190506127eb6000830187612451565b6127f86020830186612451565b6128056040830185612788565b8181036060830152612817818461246f565b905095945050505050565b60006020820190506128376000830184612460565b92915050565b6000602082019050818103600083015261285781846124a8565b905092915050565b6000602082019050818103600083015261287881612512565b9050919050565b6000602082019050818103600083015261289881612535565b9050919050565b600060208201905081810360008301526128b881612558565b9050919050565b600060208201905081810360008301526128d88161257b565b9050919050565b600060208201905081810360008301526128f88161259e565b9050919050565b60006020820190508181036000830152612918816125c1565b9050919050565b60006020820190508181036000830152612938816125e4565b9050919050565b6000602082019050818103600083015261295881612607565b9050919050565b600060208201905081810360008301526129788161262a565b9050919050565b600060208201905081810360008301526129988161264d565b9050919050565b600060208201905081810360008301526129b881612670565b9050919050565b600060208201905081810360008301526129d881612693565b9050919050565b600060208201905081810360008301526129f8816126b6565b9050919050565b60006020820190508181036000830152612a18816126d9565b9050919050565b60006020820190508181036000830152612a38816126fc565b9050919050565b60006020820190508181036000830152612a588161271f565b9050919050565b60006020820190508181036000830152612a7881612742565b9050919050565b60006020820190508181036000830152612a9881612765565b9050919050565b6000602082019050612ab46000830184612788565b92915050565b6000612ac4612ad5565b9050612ad08282612cf6565b919050565b6000604051905090565b600067ffffffffffffffff821115612afa57612af9612e2e565b5b612b0382612e5d565b9050602081019050919050565b600081519050919050565b600081519050919050565b600082825260208201905092915050565b600082825260208201905092915050565b600081905092915050565b6000612b5e82612c78565b9150612b6983612c78565b9250827fffffffffffffffffffffffffffffffffffffffffffffffffffffffffffffffff03821115612b9e57612b9d612da1565b5b828201905092915050565b6000612bb482612c78565b9150612bbf83612c78565b925082612bcf57612bce612dd0565b5b828204905092915050565b6000612be582612c78565b9150612bf083612c78565b925082821015612c0357612c02612da1565b5b828203905092915050565b6000612c1982612c58565b9050919050565b60008115159050919050565b60007fffffffff0000000000000000000000000000000000000000000000000000000082169050919050565b600073ffffffffffffffffffffffffffffffffffffffff82169050919050565b6000819050919050565b82818337600083830152505050565b60005b83811015612caf578082015181840152602081019050612c94565b83811115612cbe576000848401525b50505050565b60006002820490506001821680612cdc57607f821691505b60208210811415612cf057612cef612dff565b5b50919050565b612cff82612e5d565b810181811067ffffffffffffffff82111715612d1e57612d1d612e2e565b5b80604052505050565b6000612d3282612c78565b91507fffffffffffffffffffffffffffffffffffffffffffffffffffffffffffffffff821415612d6557612d64612da1565b5b600182019050919050565b6000612d7b82612c78565b9150612d8683612c78565b925082612d9657612d95612dd0565b5b828206905092915050565b7f4e487b7100000000000000000000000000000000000000000000000000000000600052601160045260246000fd5b7f4e487b7100000000000000000000000000000000000000000000000000000000600052601260045260246000fd5b7f4e487b7100000000000000000000000000000000000000000000000000000000600052602260045260246000fd5b7f4e487b7100000000000000000000000000000000000000000000000000000000600052604160045260246000fd5b6000601f19601f8301169050919050565b7f455243373231456e756d657261626c653a206f776e657220696e646578206f7560008201527f74206f6620626f756e6473000000000000000000000000000000000000000000602082015250565b7f4552433732313a207472616e7366657220746f206e6f6e20455243373231526560008201527f63656976657220696d706c656d656e7465720000000000000000000000000000602082015250565b7f4f776e61626c653a206e6577206f776e657220697320746865207a65726f206160008201527f6464726573730000000000000000000000000000000000000000000000000000602082015250565b7f4552433732313a207472616e736665722066726f6d20696e636f72726563742060008201527f6f776e6572000000000000000000000000000000000000000000000000000000602082015250565b7f4552433732313a20746f6b656e20616c7265616479206d696e74656400000000600082015250565b7f4552433732313a207472616e7366657220746f20746865207a65726f2061646460008201527f7265737300000000000000000000000000000000000000000000000000000000602082015250565b7f4552433732313a20617070726f766520746f2063616c6c657200000000000000600082015250565b7f4552433732313a206f70657261746f7220717565727920666f72206e6f6e657860008201527f697374656e7420746f6b656e0000000000000000000000000000000000000000602082015250565b7f4552433732313a20617070726f76652063616c6c6572206973206e6f74206f7760008201527f6e6572206e6f7220617070726f76656420666f7220616c6c0000000000000000602082015250565b7f4552433732313a2062616c616e636520717565727920666f7220746865207a6560008201527f726f206164647265737300000000000000000000000000000000000000000000602082015250565b7f4552433732313a206f776e657220717565727920666f72206e6f6e657869737460008201527f656e7420746f6b656e0000000000000000000000000000000000000000000000602082015250565b7f4552433732313a206d696e7420746f20746865207a65726f2061646472657373600082015250565b7f4552433732313a20617070726f76656420717565727920666f72206e6f6e657860008201527f697374656e7420746f6b656e0000000000000000000000000000000000000000602082015250565b7f4f776e61626c653a2063616c6c6572206973206e6f7420746865206f776e6572600082015250565b7f4552433732314d657461646174613a2055524920717565727920666f72206e6f60008201527f6e6578697374656e7420746f6b656e0000000000000000000000000000000000602082015250565b7f4552433732313a20617070726f76616c20746f2063757272656e74206f776e6560008201527f7200000000000000000000000000000000000000000000000000000000000000602082015250565b7f4552433732313a207472616e736665722063616c6c6572206973206e6f74206f60008201527f776e6572206e6f7220617070726f766564000000000000000000000000000000602082015250565b7f455243373231456e756d657261626c653a20676c6f62616c20696e646578206f60008201527f7574206f6620626f756e64730000000000000000000000000000000000000000602082015250565b61336d81612c0e565b811461337857600080fd5b50565b61338481612c20565b811461338f57600080fd5b50565b61339b81612c2c565b81146133a657600080fd5b50565b6133b281612c78565b81146133bd57600080fd5b5056fea2646970667358221220b4ba70fdee3aae8b05b955e32c3a1f044150672bcab5ac5d8525c94bd892e5e564736f6c63430008040033a2646970667358221220fcb4e3b6fe0308314fa3ae6500452374b963ceec90ac84526c5bf85ad6cf272364736f6c63430008040033",
  "linkReferences": {},
  "deployedLinkReferences": {}
}